:100000000C9435010C9466010C9466010C94660105
:100010000C9466010C9466010C9466010C946601C4
:100020000C9466010C9466010C9466010C946601B4
:100030000C9466010C9466010C9466010C946601A4
:100040000C9466010C94AD080C9466010C94660146
:100050000C9466010C9466010C9466010C94D9070B
:100060000C9466010C94A3070C9479070C94660118
:100070000C9466010C9466010C9466010C94660164
:100080000C947F080C9466010C9466010C94660134
:100090000C9466010C9466010C9466010C94660144
:1000A0000C9466010C9466010C9451080C94660142
:1000B0000C9466010C9466010C9466010C94230860
:1000C0000C9466010C9466010C9466010C94660114
:1000D0000C9466010C9466010C9466010C94660104
:1000E0000C9466010C94DF020C94C8020C94FE017F
:1000F0000C94B8010C94FB020C94FF020C94F502D2
:100100000C94FA020C94C0020C9495010C94C40255
:100110000C94CC020C94BA020C94E3020C94E70207
:100120000C944B020C94F1020C94CF020C94D50267
:100130000C94D9020C94A4010C9468010C94C6018F
:100140000C94ED020C94F608000021002400270016
:100150002A002D00300033000101000004010701D6
:100160000A0100002200250028002B002E0031008B
:10017000340002010000050108010B01000020000D
:100180002300260029002C002F003200000100006F
:10019000030106010901050505050705080808080A
:1001A000020202020A0A080804040404010101010F
:1001B000010101010303030303030303040707070A
:1001C0000C0C0C0C0C0C0C0C0202020206060606AF
:1001D000060606060B0B0B0B0B0B0B0B010210207C
:1001E000200808102040102040800201020108046D
:1001F0000201010204081020408080402010080401
:100200000201800402018040201008040201080459
:10021000020101020408102040800102040810209D
:10022000408000000A0B02090C0D0E0807030401B0
:1002300000000000000000000000000000000000BE
:10024000000000000000000000000000000012118B
:10025000100000000000000000000000000000008E
:100260000000000000000000F60811241FBECFEFC0
:10027000D1E2DEBFCDBF00E00CBF12E0A0E0B2E0F3
:10028000ECE6FEE100E00BBF02C007900D92A23742
:10029000B107D9F723E0A2E7B2E001C01D92A93D62
:1002A000B207E1F711E0C5E3D1E000E006C0219715
:1002B0000109802FFE010E942C0FC433D10780E07A
:1002C0000807A9F70E9442090C94340F0C9400000F
:1002D000AF92BF92CF92DF92EF92FF920F931F9354
:1002E000CF93DF936C017B018B01040F151FEB0192
:1002F0005E01AE18BF08C017D10759F06991D60149
:10030000ED91FC910190F081E02DC6011995892BAA
:1003100079F7C501DF91CF911F910F91FF90EF9079
:10032000DF90CF90BF90AF900895FC01538D448D26
:10033000252F30E0842F90E0821B930B541710F090
:10034000CF96089501970895FC01918D828D98179D
:1003500061F0A28DAE0FBF2FB11D5D968C91928D75
:100360009F5F9F73928F90E008958FEF9FEF0895A6
:10037000FC01918D828D981731F0828DE80FF11D6F
:10038000858D90E008958FEF9FEF0895FC01918D8A
:10039000228D892F90E0805C9F4F821B91098F7383
:1003A000992708958BE293E00E94C60121E0892BF2
:1003B00009F420E0822F0895FC01A48DA80FB92F25
:1003C000B11DA35ABF4F2C91848D90E001968F737D
:1003D0009927848FA689B7892C93A089B1898C919C
:1003E000837080648C93938D848D981306C00288EB
:1003F000F389E02D80818F7D80830895EF92FF92B5
:100400000F931F93CF93DF93EC0181E0888F9B8D37
:100410008C8D98131AC0E889F989808185FF15C0F1
:100420009FB7F894EE89FF896083E889F989808114
:100430008370806480839FBF81E090E0DF91CF91E3
:100440001F910F91FF90EF900895F62E0B8D10E005
:100450000F5F1F4F0F731127E02E8C8D8E110CC074
:100460000FB607FCFACFE889F989808185FFF5CFBF
:10047000CE010E94DC01F1CFEB8DEC0FFD2FF11DC1
:10048000E35AFF4FF0829FB7F8940B8FEA89FB89FC
:1004900080818062CFCFCF93DF93EC01888D88235A
:1004A000B9F0AA89BB89E889F9898C9185FD03C0D7
:1004B000808186FD0DC00FB607FCF7CF8C9185FFBC
:1004C000F2CF808185FFEDCFCE010E94DC01E9CF24
:1004D000DF91CF91089580E090E0892B29F00E9470
:1004E000D20181110E94000080E090E0892B49F048
:1004F00080E090E0892B29F00E94000081110E9489
:10050000000080E090E0892B49F080E090E0892BAA
:1005100029F00E94000081110E94000080E090E01C
:10052000892B49F080E090E0892B29F00E9400009F
:1005300081110C94000008958150823108F05AC056
:10054000E82FF0E08827E855FD4F8F4F0C942C0FD3
:10055000C802CC02BA02C002C402FA02CF02D5021B
:10056000D902DF02E302E702ED02F102FA02F5022C
:10057000FB02FF02809180008F77809380000895B6
:10058000809180008F7DF9CF80918000877FF5CFAB
:1005900084B58F7784BD089584B58F7DFBCF80911E
:1005A000B0008F778093B00008958091B0008F7D68
:1005B000F9CF809190008F7780939000089580917B
:1005C00090008F7DF9CF80919000877FF5CF80914B
:1005D000A0008F778093A00008958091A0008F7D68
:1005E000F9CF8091A000877FF5CF809120018F7790
:1005F000809320010895809120018F7DF9CF809113
:100600002001877FF5CFCF93DF93282F30E0F901CA
:10061000EE5DFD4F8491F901E452FE4FD491F90152
:10062000EA56FE4FC491CC23A1F081110E949C0296
:10063000EC2FF0E0EE0FFF1FE458FE4FA591B491B0
:10064000EC91ED2381E090E009F480E0DF91CF911F
:10065000089580E090E0FACF1F93CF93DF93282F87
:1006600030E0F901EE5DFD4F8491F901E452FE4F57
:10067000D491F901EA56FE4FC491CC23A9F0162F6C
:1006800081110E949C02EC2FF0E0EE0FFF1FEE594B
:10069000FE4FA591B4918FB7F894EC91111108C059
:1006A000D095DE23DC938FBFDF91CF911F9108950A
:1006B000DE2BF8CFCF93DF9390E0FC01E452FE4FA6
:1006C00024918A569E4FFC0184918823D1F090E0BA
:1006D000880F991FFC01E85BFE4FA591B491FC01C6
:1006E000EE59FE4FC591D49161110EC09FB7F89499
:1006F0008C91E22FE0958E238C932881E223E8836E
:100700009FBFDF91CF9108958FB7F894EC91E22BC2
:10071000EC938FBFF6CFCF92DF92EF92FF92CF9301
:10072000DF93EC01603282E07807CCF5653B710520
:1007300014F064EB70E0898128E830E0281B31096F
:1007400087FD3395220F331F220F331F6901330FAB
:10075000EE08FF088A8128E532E0281B310987FD71
:100760003395220F331F220F331F032E000C440B2F
:10077000550B2C193D094E095F09DB0177FF02C0BB
:10078000B0E0A0E00E94A40C24EB30E040E050E098
:100790000E947A0CC20ED31EE41EF51EB601E8813B
:1007A000E03370F5298188E890E0821B910927FDEC
:1007B0009395880F991F880F991F681779077CF008
:1007C0002A8188E592E0821B910927FD9395880F85
:1007D000991F880F991F681779070CF4CB010297AE
:1007E000880F991F4FB7F8942E2F30E0F901EE0FC4
:1007F000FF1FE20FF31FE958FD4F928381834FBF24
:10080000DF91CF91FF90EF90DF90CF9008951F93ED
:10081000CF93DF93EC01162F8881803308F04EC010
:1008200061E0812F0E945A038881282F30E0F9016E
:10083000EE0FFF1FE20FF31FE958FD4F1F7360819A
:10084000607C612B608319821A822CE0622F0E94E7
:10085000200F829FB001112430E020E0AB01420F55
:10086000531FFA01EE0FFF1FE40FF51FE958FD4F6C
:10087000908196FD16C02F5F3F4F2C30310571F7E8
:10088000813009F51092800082E0809381001092FF
:10089000850010928400B19A80916F0082608093ED
:1008A0006F00E8818E2F90E0FC01EE0FFF1FE80F34
:1008B000F91FE958FD4F8081806480838881DF9132
:1008C000CF911F910895823061F41092900080932F
:1008D0009100109295001092940088BB8093710053
:1008E000E0CF833069F41092A00082E08093A100F1
:1008F0001092A5001092A40089BB80937200D1CF02
:100900008111CFCF1092200182E0809321011092BB
:100910002501109224018ABB80937300C2CFAF924D
:10092000BF92CF92DF92EF92FF920F931F93CF93DC
:10093000DF936B017A01EC01CE58DD4F28813CE05A
:10094000389F8001399F100D1124A0907602B12CA0
:1009500027FF1FC0FB011182108288818F5F88836F
:1009600088819801280F311D87FD3A95F6012A15D7
:100970003B051CF488818C30C4F180819181049600
:1009800080349C4908F473C0F601808191810496FB
:1009900070C088819801280F311D87FD3A952A156E
:1009A0003B05DCF68881A801480F511D87FD5A954B
:1009B000FA01EE0FFF1FE40FF51FE958FD4F80818C
:1009C00086FFCBCF8881F801E80FF11D87FDFA95EE
:1009D000CF01EE0FFF1FE80FF91FE958FD4F80818F
:1009E00060E08F730E942C03B8CF808191812881B1
:1009F000A801420F511D27FD5A959A01FA01EE0FE9
:100A0000FF1FE20FF31FE958FD4F21813281820F52
:100A1000931FF7019183808388819801280F311DEE
:100A200087FD3A95F901EE0FFF1FE20FF31FE9581A
:100A3000FD4F808186FF22C08881080F111D87FD30
:100A40001A95F801EE0FFF1FE00FF11FE958FD4F57
:100A5000808161E08F73DF91CF911F910F91FF90A3
:100A6000EF90DF90CF90BF90AF900C942C0380E478
:100A70009CE9F701918380838FEF8883DF91CF9189
:100A80001F910F91FF90EF90DF90CF90BF90AF90AC
:100A9000089580910C0390910D03892B61F0809152
:100AA000150390911603892B31F061E089E10E94D2
:100AB0002C0381E0089560E089E10E942C0380E02E
:100AC0000895FC0101900020E9F73197AF01481B20
:100AD000590BBC018BE293E00C9468018F929F92BA
:100AE000AF92BF920F931F93CF93DF93CDB7DEB733
:100AF000A1970FB6F894DEBF0FBECDBF19A242304A
:100B000008F44AE08E010F5D1F4F842E912CB12C0A
:100B1000A12CA50194010E94AC0CE62FB901CA01D9
:100B2000EA30F4F4E05DD801EE938D01232B242B01
:100B3000252B79F790E080E0109719F0CD010E9405
:100B40006105A1960FB6F894DEBF0FBECDBFDF9151
:100B5000CF911F910F91BF90AF909F908F9008956C
:100B6000E95CE1CF4F925F926F927F928F929F925A
:100B7000AF92BF92CF92DF92EF92FF920F931F93AB
:100B8000CF936B017C01742EAC019B010E941B0F63
:100B9000882399F082E192E0CF911F910F91FF900D
:100BA000EF90DF90CF90BF90AF909F908F907F900D
:100BB0006F905F904F900C94610546015701E89447
:100BC000B7F82FEF3FEF4FE75FE7C501B4010E9491
:100BD0001B0F81110DC02FEF3FEF4FE75FE7C501FE
:100BE000B4010E944A0D18161CF486E192E0D4CF9D
:100BF0002FEF3FEF4FE75FE4C701B6010E94A90E58
:100C000018161CF48AE192E0C7CF2FEF3FEF4FE7B1
:100C10005FECC701B6010E944A0D87FDF3CF20E0CB
:100C200030E0A901C701B6010E944A0D10E000E0C2
:100C300087FF0AC06DE28BE293E00E94FE018C0107
:100C4000F7FAF094F7F8F094C0E060E070E080E02C
:100C50009FE37C1641F020E030E040E251E40E9446
:100C60004F0DCF5FF6CFA70196010E94DE0C2B013E
:100C70003C010E94C80D4B015C014AE00E946E05D8
:100C80007C01E00EF11ECC23C1F1C501B4010E942C
:100C9000F70D9B01AC01C301B2010E94DD0C4B01B9
:100CA0005C016EE28BE293E00E94FE01E80EF91E09
:100CB000C15018F120E030E040E251E4C501B40138
:100CC0000E94AE0E2B013C010E94C80D4B01B12CBD
:100CD000A12C4AE0C501B4010E946E05E80EF91E80
:100CE000C501B4010E94F70D9B01AC01C301B20123
:100CF0000E94DD0C4B015C01DBCFC701CF911F913E
:100D00000F91FF90EF90DF90CF90BF90AF909F90AA
:100D10008F907F906F905F904F9008952FB7F894C9
:100D20008091C8039091C903A091CA03B091CB03ED
:100D30002FBF4091CC035091CD036091CE037091B1
:100D4000CF03841B950BA60BB70B883E9340A105E0
:100D5000B10510F480E008952FB7F8948091C8038E
:100D60009091C903A091CA03B091CB032FBF4091CA
:100D7000CC035091CD036091CE037091CF03841BBF
:100D8000950BA60BB70B8D349440A105B10510F758
:100D900060911F03709120038091210390912203A1
:100DA0006F5F7F4F8F4F9F4F60931F0370932003A0
:100DB00080932103909322034AE00E946E058EE106
:100DC00092E00E9461052FB7F8948091C80390913A
:100DD000C903A091CA03B091CB032FBF8093CC036A
:100DE0009093CD03A093CE03B093CF0381E00895F9
:100DF000CF92DF92EF92FF9220E030E0A901609164
:100E00001B0370911C0380911D0390911E030E948F
:100E1000A90E181654F0C12CD12C7601C701B601C9
:100E2000FF90EF90DF90CF90089580910E03909106
:100E30000F03892B81F30E944905882361F320E089
:100E400030E048EC52E460912703709128038091D0
:100E5000290390912A030E94AE0E20E030EC4FE768
:100E600054E40E944F0D20E030E0A9010E94DE0C06
:100E700020E030E048EC52E40E944F0D6B017C0111
:100E80000E948E068823E1F020E030E048EC52E436
:100E9000C701B6010E94AE0E9B01AC0160911B031D
:100EA00070911C0380911D0390911E030E94DD0C24
:100EB00060931B0370931C0380931D0390931E0388
:100EC00020E030E0A90160911B0370911C03809128
:100ED0001D0390911E030E944A0D18160CF49ECF1C
:100EE00010921B0310921C0310921D0310921E03FC
:100EF00095CF1F920F920FB60F9211240BB60F923F
:100F00002F933F934F935F936F937F938F939F9311
:100F1000AF93BF93EF93FF938BE293E00E94DC01CA
:100F2000FF91EF91BF91AF919F918F917F916F91C1
:100F30005F914F913F912F910F900BBE0F900FBE7D
:100F40000F901F9018951F920F920FB60F921124B9
:100F50000BB60F922F938F939F93EF93FF93E09194
:100F60003B03F0913C038081E0914103F091420307
:100F700082FD1DC09081809144038F5F8F7320910B
:100F80004503821741F0E0914403F0E0E55DFC4F3A
:100F9000958F80934403FF91EF919F918F912F91B3
:100FA0000F900BBE0F900FBE0F901F901895808171
:100FB000F2CF1F920F920FB60F9211242F933F93EF
:100FC0008F939F93AF93BF938091C8039091C90370
:100FD000A091CA03B091CB0330910B0323E0230F00
:100FE0002D3758F50196A11DB11D20930B03809359
:100FF000C8039093C903A093CA03B093CB03809115
:10100000070390910803A0910903B0910A03019688
:10101000A11DB11D8093070390930803A0930903BA
:10102000B0930A03BF91AF919F918F913F912F9100
:101030000F900FBE0F901F90189526E8230F029671
:10104000A11DB11DD2CF1F920F920FB60F92112486
:101050000BB60F922F933F934F935F936F937F93B2
:101060008F939F93AF93BF93EF93FF9348E251E029
:1010700064E271E090E080E00E948F04FF91EF91C4
:10108000BF91AF919F918F917F916F915F914F91A0
:101090003F912F910F900BBE0F900FBE0F901F909E
:1010A00018951F920F920FB60F9211240BB60F9244
:1010B0002F933F934F935F936F937F938F939F9360
:1010C000AF93BF93EF93FF9348EA50E064EA70E078
:1010D00083E090E00E948F04FF91EF91BF91AF9168
:1010E0009F918F917F916F915F914F913F912F9140
:1010F0000F900BBE0F900FBE0F901F9018951F9270
:101100000F920FB60F9211240BB60F922F933F93AD
:101110004F935F936F937F938F939F93AF93BF93FF
:10112000EF93FF9348E950E064E970E082E090E0DB
:101130000E948F04FF91EF91BF91AF919F918F918A
:101140007F916F915F914F913F912F910F900BBEC7
:101150000F900FBE0F901F9018951F920F920FB611
:101160000F9211240BB60F922F933F934F935F93DF
:101170006F937F938F939F93AF93BF93EF93FF935F
:1011800048E850E064E870E081E090E00E948F045D
:10119000FF91EF91BF91AF919F918F917F916F914F
:1011A0005F914F913F912F910F900BBE0F900FBE0B
:1011B0000F901F901895FC0190917602903398F44F
:1011C00081E0890F809376029083892F90E0FC0163
:1011D000EE0FFF1FE80FF91FE958FD4F88EB9BE06A
:1011E0009283818308958FEF80830895EBE2F3E08B
:1011F0001382128288EE93E0A0E0B0E084839583AE
:10120000A683B78384E092E09183808385EC90E0AD
:101210009587848784EC90E09787868780EC90E0C0
:10122000918B808B81EC90E0938B828B82EC90E0B1
:10123000958B848B86EC90E0978B868B118E128E2B
:10124000138E148E86ED93E00E94DB0883ED93E00D
:101250000E94DB0880ED93E00E94DB082FB7F89432
:101260008091C8039091C903A091CA03B091CB03A8
:101270002FBF8093CC039093CD03A093CE03B09364
:10128000CF030895789484B5826084BD84B581606D
:1012900084BD85B5826085BD85B5816085BD809141
:1012A0006E00816080936E001092810080918100B9
:1012B00082608093810080918100816080938100B1
:1012C000809180008160809380008091B100846073
:1012D0008093B1008091B00081608093B0008091D4
:1012E0009100826080939100809191008160809351
:1012F0009100809190008160809390008091A10086
:1013000082608093A1008091A10081608093A10000
:101310008091A00081608093A00080912101826073
:10132000809321018091210181608093210180912E
:10133000200181608093200180917A0084608093F5
:101340007A0080917A00826080937A0080917A009E
:10135000816080937A0080917A00806880937A001F
:101360001092C100E0913B03F0913C0382E0808346
:10137000E0913703F09138031082E0913903F09146
:101380003A038FEC808310924303E0913F03F09186
:10139000400386E08083E0913D03F0913E0380812D
:1013A00080618083E0913D03F0913E0380818860FD
:1013B0008083E0913D03F0913E03808180688083CB
:1013C000E0913D03F0913E0380818F7D808360E05A
:1013D00082E00E945A0361E086E10E945A0361E0C4
:1013E00087E10E945A0361E088E10E945A0361E0AC
:1013F0008AE10E945A0360E085E00E945A0360E09F
:1014000086E00E945A0361E089E10E945A0360E08D
:1014100086E30E945A0361E087E30E945A0361E079
:101420008FE10E945A0361E08EE10E945A036FE14E
:1014300070E086ED93E00E9407046EE170E083EDBA
:1014400093E00E94070467E370E080ED93E00E9460
:10145000070410E401E0412C80E4582E8CE1682E52
:1014600086E4782E82E00E94030390931603809313
:10147000150383E00E94030390930F0380930E03F0
:1014800088E20E940303909314038093130385E082
:101490000E940303909311038093100386E00E943F
:1014A000030390930D0380930C030E948E0680919A
:1014B0007B00877F80937B0010937C0080917A0073
:1014C000806480937A0080917A0086FDFCCF6091E1
:1014D000780070917900072E000C880B990B0E9400
:1014E000F90D609327037093280380932903909349
:1014F0002A030E94490580910E0390910F03892BC6
:10150000C9F00E94F80620E030E0A9010E94A90E6F
:10151000181684F40E94F80620E030E048EC52E40B
:101520000E94AE0E60931703709318038093190303
:1015300090931A03C0910E03D0910F0320E030E086
:10154000A90160911703709118038091190390917C
:101550001A030E94A90E1816ECF4CD2BE9F00093A3
:1015600012030E94F80620E030E0A9010E944A0D13
:10157000181694F420E030E0A90160911B037091EB
:101580001C0380911D0390911E030E944A0D1816A2
:101590006CF002C0CD2B29F710921703109218039C
:1015A0001092190310921A0310921203C09115039E
:1015B000D0911603C130D10569F480911003909148
:1015C0001103019739F461E08AE10E942C0361E084
:1015D00086E114C060E08AE10E942C032097B9F7ED
:1015E00060E086E10E942C0360E087E10E942C030A
:1015F00060E088E10E942C0360E089E10E942C03F6
:101600008091120381110DC060E087E10E942C03DC
:10161000209769F470E060E086ED93E00E948B0310
:1016200023C02097B9F361E087E10E942C0320E0FA
:1016300030E044E353E46091170370911803809104
:10164000190390911A030E94AE0E20E030E048EC9E
:1016500052E40E944F0D0E94C10D86ED93E00E945E
:101660008B03C130D10511F060E010C020E030E004
:10167000A90160911B0370911C0380911D0390913F
:101680001E030E944A0D61E08111EECF88E10E94A5
:101690002C038091130390911403019741F440921D
:1016A0001B0350921C0360921D0370921E03C130F5
:1016B000D10509F05EC020E030E044E353E46091DE
:1016C0001B0370911C0380911D0390911E030E94C7
:1016D000AE0E20E030E44CE156E40E944F0D0E9433
:1016E000C10D24EB30E0A901461B570BBA0183ED75
:1016F00093E00E948B0320E030E043E353E46091E9
:1017000023037091240380912503909126030E9466
:10171000AE0E20E030E04AEF53E40E944F0D20E08F
:1017200030E0A9010E94DE0C6B017C0181E292E0B5
:101730000E946105C701B6010E94C10D4B016B01FA
:10174000770FEE08FF084AE0C701B601F7FE0DC0AB
:101750006DE28BE293E00E94FE0166277727CB01C2
:101760006C197D098E099F094AE00E946E05B4013B
:101770000BC064EB70E083ED93E00E948B0370E09C
:1017800060E0CD2B09F0B7CF80ED93E00E948B0392
:10179000C0902303D0902403E0902503F09026030B
:1017A00060911703709118038091190390911A03A7
:1017B0009B01AC010E94DE0C4B015C01A70196016C
:1017C000C701B6010E94AE0E2FE632E143E85AE3AC
:1017D0000E94AE0E9B01AC01C501B4010E94DD0C5C
:1017E000A70196010E94DE0C20E030E040E050E4CA
:1017F0000E94DD0C6B017C0120E030E0A9010E9419
:101800004A0D87FF03C0C12CD12C7601C09223035F
:10181000D0922403E0922503F092260389E292E01D
:101820000E94610560911F03709120038091210344
:10183000909122034AE00E946E0585E392E00E94A7
:10184000610560911B0370911C0380911D039091B1
:101850001E0342E00E94B20585E492E00E94610509
:101860000E94F80642E00E94B20583E592E00E94E1
:10187000610520E030E048EC52E46091270370916C
:1018800028038091290390912A030E94AE0E20E044
:1018900030EC4FE754E40E944F0D20E030E0A90106
:1018A0000E94DE0C42E00E94B20580E692E00E94B7
:1018B000610560911703709118038091190390914D
:1018C0001A0342E00E94B20588E692E00E94610598
:1018D0006091230370912403809125039091260346
:1018E00042E00E94B2058EE192E00E9461050E94F2
:1018F0006B02B8CD052E97FB1EF400940E94910C4C
:1019000057FD07D00E94AC0C07FC03D04EF40C949A
:10191000910C50954095309521953F4F4F4F5F4F1B
:10192000089590958095709561957F4F8F4F9F4F4B
:1019300008950E94CE0CA59F900DB49F900DA49F7A
:10194000800D911D11240895B7FF0C94990C0E94ED
:10195000990C821B930B0895A1E21A2EAA1BBB1BA4
:10196000FD010DC0AA1FBB1FEE1FFF1FA217B3076B
:10197000E407F50720F0A21BB30BE40BF50B661F81
:10198000771F881F991F1A9469F760957095809545
:1019900090959B01AC01BD01CF010895A29FB001BC
:1019A000B39FC001A39F700D811D1124911DB29F93
:1019B000700D811D1124911D08955058BB27AA2731
:1019C0000E94F50C0C946F0E0E94610E38F00E947C
:1019D000680E20F039F49F3F19F426F40C945E0E43
:1019E0000EF4E095E7FB0C94580EE92F0E94800E50
:1019F00058F3BA17620773078407950720F079F444
:101A0000A6F50C94A20E0EF4E0950B2EBA2FA02D85
:101A10000B01B90190010C01CA01A0011124FF279B
:101A2000591B99F0593F50F4503E68F11A16F04096
:101A3000A22F232F342F4427585FF3CF4695379595
:101A40002795A795F0405395C9F77EF41F16BA0B5A
:101A5000620B730B840BBAF09150A1F0FF0FBB1F08
:101A6000661F771F881FC2F70EC0BA0F621F731F51
:101A7000841F48F4879577956795B795F7959E3FAE
:101A800008F0B0CF9395880F08F09927EE0F97953F
:101A9000879508950E94340E08F481E008950E940D
:101AA000630D0C946F0E0E94680E58F00E94610E38
:101AB00040F029F45F3F29F00C94580E51110C941A
:101AC000A30E0C945E0E0E94800E68F39923B1F36E
:101AD000552391F3951B550BBB27AA276217730754
:101AE000840738F09F5F5F4F220F331F441FAA1FE8
:101AF000A9F335D00E2E3AF0E0E832D091505040A4
:101B0000E695001CCAF72BD0FE2F29D0660F771F51
:101B1000881FBB1F261737074807AB07B0E809F037
:101B2000BB0B802DBF01FF2793585F4F3AF09E3FBC
:101B3000510578F00C94580E0C94A30E5F3FE4F31B
:101B4000983ED4F3869577956795B795F7959F5FFF
:101B5000C9F7880F911D9695879597F90895E1E04B
:101B6000660F771F881FBB1F621773078407BA07AA
:101B700020F0621B730B840BBA0BEE1F88F7E09505
:101B800008950E94C80D6894B1110C94A30E089595
:101B90000E94880E88F09F5798F0B92F9927B75167
:101BA000B0F0E1F0660F771F881F991F1AF0BA9501
:101BB000C9F714C0B13091F00E94A20EB1E00895AF
:101BC0000C94A20E672F782F8827B85F39F0B93FA1
:101BD000CCF3869577956795B395D9F73EF49095B4
:101BE0008095709561957F4F8F4F9F4F0895E89432
:101BF00009C097FB3EF490958095709561957F4F55
:101C00008F4F9F4F9923A9F0F92F96E9BB27939502
:101C1000F695879577956795B795F111F8CFFAF412
:101C2000BB0F11F460FF1BC06F5F7F4F8F4F9F4F43
:101C300016C0882311F096E911C0772321F09EE8A1
:101C4000872F762F05C0662371F096E8862F70E007
:101C500060E02AF09A95660F771F881FDAF7880FE1
:101C60009695879597F90895990F0008550FAA0B37
:101C7000E0E8FEEF16161706E807F907C0F012169F
:101C80001306E407F50798F0621B730B840B950BA2
:101C900039F40A2661F0232B242B252B21F40895F7
:101CA0000A2609F4A140A6958FEF811D811D089594
:101CB00097F99F6780E870E060E008959FEF80ECFF
:101CC000089500240A9416161706180609060895A2
:101CD00000240A9412161306140605060895092E08
:101CE0000394000C11F4882352F0BB0F40F4BF2B77
:101CF00011F460FF04C06F5F7F4F8F4F9F4F0895B7
:101D000057FD9058440F551F59F05F3F71F04795AC
:101D1000880F97FB991F61F09F3F79F08795089591
:101D2000121613061406551FF2CF4695F1DF08C0B0
:101D3000161617061806991FF1CF869571056105CD
:101D400008940895E894BB2766277727CB0197F975
:101D500008950E94340E08F48FEF08950E94C10E7A
:101D60000C946F0E0E94610E38F00E94680E20F0F5
:101D7000952311F00C94580E0C945E0E11240C94C3
:101D8000A30E0E94800E70F3959FC1F3950F50E053
:101D9000551F629FF001729FBB27F00DB11D639F1D
:101DA000AA27F00DB11DAA1F649F6627B00DA11DC3
:101DB000661F829F2227B00DA11D621F739FB00D69
:101DC000A11D621F839FA00D611D221F749F3327D9
:101DD000A00D611D231F849F600D211D822F762F72
:101DE0006A2F11249F5750409AF0F1F088234AF04F
:101DF000EE0FFF1FBB1F661F771F881F91505040BB
:101E0000A9F79E3F510580F00C94580E0C94A30E38
:101E10005F3FE4F3983ED4F3869577956795B79541
:101E2000F795E7959F5FC1F7FE2B880F911D96955B
:101E3000879597F908950E94340E880B990B0895A1
:101E4000991B79E004C0991F961708F0961B881F0C
:101E50007A95C9F780950895EE0FFF1F881F8BBFF5
:0C1E60000790F691E02D1994F894FFCF44
:101E6C0000000000FE01680195014B02C601A401AF
:101E7C00B8016E616E00696E66006F7666000D0AC1
:101E8C000009206465673A2000092054696D6528B3
:101E9C0073293A200009204675656C20416D6F75D9
:101EAC006E743A200009204675656C20666C6F775D
:101EBC003A200009205468726F74746C653A2000E3
:101ECC00092052504D3A2000092053706565643A40
:021EDC002000E4
:00000001FF
